:020000040000fa
:080000000002040000000000f2
:020000040000fa
:04000800d003000021
:020000040000fa
:04000c00d403000019
:020000040000fa
:04001000e003000009
:020000040000fa
:04001400d80300000d
:020000040000fa
:04001800dc03000005
:020000040000fa
:04001c00e8030000f5
:020000040000fa
:04002000e4030000f5
:020000040000fa
:04002400e8030000ed
:020000040000fa
:04002800e8030000e9
:020000040000fa
:04002c00e8030000e5
:020000040000fa
:04003000e8030000e1
:020000040000fa
:04003400e8030000dd
:020000040000fa
:04003800e8030000d9
:020000040000fa
:04003c00e8030000d5
:020000040000fa
:04004000e8030000d1
:020000040000fa
:04004400e8030000cd
:020000040000fa
:04004800e8030000c9
:020000040000fa
:04004c00e8030000c5
:020000040000fa
:04005000e8030000c1
:020000040000fa
:04005400e8030000bd
:020000040000fa
:04005800e8030000b9
:020000040000fa
:04005c00e8030000b5
:020000040000fa
:04006000e8030000b1
:020000040000fa
:04006400e8030000ad
:020000040000fa
:04006800e8030000a9
:020000040000fa
:04006c00e8030000a5
:020000040000fa
:04007000e8030000a1
:020000040000fa
:04007400e80300009d
:020000040000fa
:04007800e803000099
:020000040000fa
:04007c00e803000095
:020000040000fa
:04008000e803000091
:020000040000fa
:04008400e80300008d
:020000040000fa
:04008800e803000089
:020000040000fa
:04008c00e803000085
:020000040000fa
:04009000e803000081
:020000040000fa
:04009400e80300007d
:020000040000fa
:04009800e803000079
:020000040000fa
:04009c00e803000075
:020000040000fa
:0400a000e803000071
:020000040000fa
:0400a400e80300006d
:020000040000fa
:0400a800e803000069
:020000040000fa
:0400ac00e803000065
:020000040000fa
:0400b000e803000061
:020000040000fa
:0400b400e80300005d
:020000040000fa
:0400b800e803000059
:020000040000fa
:0400bc00e803000055
:020000040000fa
:0400c000e803000051
:020000040000fa
:0400c400e80300004d
:020000040000fa
:0400c800e803000049
:020000040000fa
:0400cc00e803000045
:020000040000fa
:0400d000e803000041
:020000040000fa
:0400d400e80300003d
:020000040000fa
:0400d800e803000039
:020000040000fa
:0400dc00e803000035
:020000040000fa
:0400e000e803000031
:020000040000fa
:0400e400e80300002d
:020000040000fa
:0400e800e803000029
:020000040000fa
:0400ec00e803000025
:020000040000fa
:0400f000e803000021
:020000040000fa
:0400f400e80300001d
:020000040000fa
:0400f800e803000019
:020000040000fa
:0400fc00e803000015
:020000040000fa
:04010000e803000010
:020000040000fa
:04010400e80300000c
:020000040000fa
:04010800e803000008
:020000040000fa
:04010c00e803000004
:020000040000fa
:04011000e803000000
:020000040000fa
:04011400e8030000fc
:020000040000fa
:04011800e8030000f8
:020000040000fa
:04011c00e8030000f4
:020000040000fa
:04012000e8030000f0
:020000040000fa
:04012400e8030000ec
:020000040000fa
:04012800e8030000e8
:020000040000fa
:04012c00e8030000e4
:020000040000fa
:04013000e8030000e0
:020000040000fa
:04013400e8030000dc
:020000040000fa
:04013800e8030000d8
:020000040000fa
:04013c00e8030000d4
:020000040000fa
:04014000e8030000d0
:020000040000fa
:04014400e8030000cc
:020000040000fa
:04014800e8030000c8
:020000040000fa
:04014c00e8030000c4
:020000040000fa
:04015000e8030000c0
:020000040000fa
:040154009c03000008
:020000040000fa
:04015800e8030000b8
:020000040000fa
:04015c00e8030000b4
:020000040000fa
:04016000e8030000b0
:020000040000fa
:04016400e8030000ac
:020000040000fa
:04016800e8030000a8
:020000040000fa
:04016c00e8030000a4
:020000040000fa
:04017000e8030000a0
:020000040000fa
:04017400e80300009c
:020000040000fa
:04017800e803000098
:020000040000fa
:04017c00e803000094
:020000040000fa
:04018000e803000090
:020000040000fa
:04018400e80300008c
:020000040000fa
:04018800e803000088
:020000040000fa
:04018c00e803000084
:020000040000fa
:04019000e803000080
:020000040000fa
:04019400e80300007c
:020000040000fa
:04019800e803000078
:020000040000fa
:04019c00e803000074
:020000040000fa
:0401a000e803000070
:020000040000fa
:0401a400e80300006c
:020000040000fa
:0401a800e803000068
:020000040000fa
:0401ac00e803000064
:020000040000fa
:0401b000e803000060
:020000040000fa
:0401b400e80300005c
:020000040000fa
:0401b800e803000058
:020000040000fa
:0401bc00e803000054
:020000040000fa
:0401c000e803000050
:020000040000fa
:0401c400e80300004c
:020000040000fa
:0401c800e803000048
:020000040000fa
:0401cc00e803000044
:020000040000fa
:0401d000e803000040
:020000040000fa
:0401d400e80300003c
:020000040000fa
:0401d800e803000038
:020000040000fa
:0401dc00e803000034
:020000040000fa
:0401e00076030000a2
:020000040000fa
:0401e400e80300002c
:020000040000fa
:0401e800e803000028
:020000040000fa
:0401ec00e803000024
:020000040000fa
:0401f000e803000020
:020000040000fa
:0401f400e80300001c
:020000040000fa
:0401f800e803000018
:020000040000fa
:0401fc00e803000014
:020000040000fa
:04020000e80300000f
:020000040000fa
:04020400e80300000b
:020000040000fa
:04020800e803000007
:020000040000fa
:04020c00e803000003
:020000040000fa
:04021000e8030000ff
:020000040000fa
:04021400e8030000fb
:020000040000fa
:04021800e8030000f7
:020000040000fa
:04021c00e8030000f3
:020000040000fa
:04022000e8030000ef
:020000040000fa
:04022400e8030000eb
:020000040000fa
:04022800e8030000e7
:020000040000fa
:04022c00e8030000e3
:020000040000fa
:04023000e8030000df
:020000040000fa
:04023400e8030000db
:020000040000fa
:04023800e8030000d7
:020000040000fa
:04023c00e8030000d3
:020000040000fa
:04024000e8030000cf
:020000040000fa
:04024400e8030000cb
:020000040000fa
:04024800e8030000c7
:020000040000fa
:04024c00e8030000c3
:020000040000fa
:04025000e8030000bf
:020000040000fa
:04025400e8030000bb
:020000040000fa
:04025800e8030000b7
:020000040000fa
:04025c00e8030000b3
:020000040000fa
:04026000e8030000af
:020000040000fa
:04026400e8030000ab
:020000040000fa
:04026800e8030000a7
:020000040000fa
:04026c00e8030000a3
:020000040000fa
:04027000e80300009f
:020000040000fa
:04027400e80300009b
:020000040000fa
:04027800e803000097
:020000040000fa
:04027c00e803000093
:020000040000fa
:04028000e80300008f
:020000040000fa
:04028400e80300008b
:020000040000fa
:04028800e803000087
:020000040000fa
:04028c00e803000083
:020000040000fa
:04029000e80300007f
:020000040000fa
:04029400e80300007b
:020000040000fa
:04029800e803000077
:020000040000fa
:04029c00e803000073
:020000040000fa
:0402a000e80300006f
:020000040000fa
:0402a400e80300006b
:020000040000fa
:0402a800e803000067
:020000040000fa
:0402ac00e803000063
:020000040000fa
:0402b000e80300005f
:020000040000fa
:0402b400e80300005b
:020000040000fa
:0402b800e803000057
:020000040000fa
:0402bc00e803000053
:020000040000fa
:0402c000e80300004f
:020000040000fa
:0402c400e80300004b
:020000040000fa
:0402c800e803000047
:020000040000fa
:0402cc00e803000043
:020000040000fa
:0402d000e80300003f
:020000040000fa
:0402d400e80300003b
:020000040000fa
:0402d800e803000037
:020000040000fa
:0402dc00e803000033
:020000040000fa
:0402e000e80300002f
:020000040000fa
:0402e400e80300002b
:020000040000fa
:0402e800e803000027
:020000040000fa
:0402ec00e803000023
:020000040000fa
:0402f000e80300001f
:020000040000fa
:0402f400e80300001b
:020000040000fa
:0402f800e803000017
:020000040000fa
:0402fc00e803000013
:020000040000fa
:04030000e80300000e
:020000040000fa
:04030400e80300000a
:020000040000fa
:04030800e803000006
:020000040000fa
:04030c00e803000002
:020000040000fa
:04031000e8030000fe
:020000040000fa
:04031400e8030000fa
:020000040000fa
:04031800e8030000f6
:020000040000fa
:04031c00e8030000f2
:020000040000fa
:04032000e8030000ee
:020000040000fa
:04032400e8030000ea
:020000040000fa
:04032800e8030000e6
:020000040000fa
:04032c00e8030000e2
:020000040000fa
:04033000e8030000de
:020000040000fa
:04033400e8030000da
:020000040000fa
:100400008f6722000eff26000e018800000000000a
:10041000000020000000e000020032000001200087
:100420002002880014000700eb0007000000e00035
:1004300003003a00e04323000100200002003700df
:100440000000200001002000810f70000100320038
:100450000f000700000020000000e0000200320052
:100460000000020000000000441b02000000000029
:100470000040da000000fe00400620000000e0001e
:1004800002003200002020009001880000000600d9
:10049000a1028800800478000000eb001f003700f4
:1004a000e284440054a0b4009905ba00e2844400f8
:1004b00054a0b4009906ba00e284440054a0b400e9
:1004c0000006eb00476fde00fd07b200ae018800ba
:1004d000636ce10003003a000ad801000000eb0061
:1004e0000e003700606ce10008003a00004deb00a0
:1004f0000a05e800020039003420ec000af0a000f0
:100500008b05e900f9ff3e00040037006168e10057
:10051000010032000086eb000b00070019c7ba008b
:100520001905ba000e04e00003003a000a00e000da
:10053000dbff3a0000000600fe07b200ae028800b2
:100540008a047800f5ff37000cd0a300e20f4d00bd
:100550001c003b0089027800354dba000a05e8000e
:10056000020039003420ec000af0a0008b05e900fd
:100570000f003200254dba000a05e80002003900dc
:100580003420ec000af0a0008b05e90008003200de
:100590000c00e0000600320015cdba000a05e800a4
:1005a000020039003420ec000af0a0008b05e900bd
:1005b0008984e80054a0b4000b00e000e2ff3a0098
:1005c000000006009902ba00055d78008b05e9007d
:1005d000f7ff3200c82ade00055d78008b05e900d0
:1005e000f3ff32000c00e000f1ff320019ddba0029
:1005f000eeff370036300400000000002e3004000b
:10060000000000001230040000000000063004006a
:100610000000000022330400000000002833040022
:10062000000000002c330400000000003033040000
:10063000000000001629040000000000202804002b
:10064000000000009228040000000000dc290400e3
:10065000000000000c24040000000000022404003c
:1006600000000000ba34040000000000bc340400a4
:1006700000000000be34040000000000c03404008c
:1006800000000000c234040000000000c434040074
:100690000000000044150400000000005215040092
:1006a00000000000661a040000000000c6190400e3
:1006b000000000007e17040000000000e81804009d
:1006c00000000000a2090400000000002809040046
:1006d00000000000d80c0400000000008c0d040095
:1006e0000000000042150400000000003600f80081
:1006f000809fbe00829fbe00849fbe00869fbe007a
:100700000000fa003d1607008052220091140700f5
:10071000760c0700c4130700d50b07000080fa0011
:100720004f03be004f02be004f01be004f00be008f
:100730003600f900004006003600f800809fbe0039
:10074000829fbe00849fbe00869fbe000000fa000c
:10075000490c070010298100e10f500008003a0001
:10076000810b0700c0288900d1288900c02881009a
:10077000d12881006b0d0700602c8100ad0d0700b2
:10078000980b07000080fa004f03be004f02be0026
:100790004f01be004f00be003600f90000400600c9
:1007a0000000fa00ffff37000000fa00ffff3700eb
:1007b0000000fa00ffff37000000fa00ffff3700db
:1007c0000000fa00ffff37000000fa00ffff3700cb
:1007d0000000fa00ffff3700000005008f1fd10066
:1007e0000c0007008f87e9000000e0000000060011
:1007f000809feb00070007008f87e9000000e00002
:1008000000000600140020003d003700f4ff2f0018
:100810003b003700889fbe008a9fbe008c9fbe00b1
:100820000404be000605be00809fbe00829fbe007d
:1008300021000700040678000800be000a01be007f
:100840001d000700840678004f03be004f02be0063
:100850008d4f76007fb0970013003300f0ff2f001c
:100860008b8f6b0006003b000d0666000c00a70096
:100870000a00370007f0a600100020000a00370029
:10088000880f5200898f5a008a0f5b008b8f5b00a4
:10089000030039001000200001003e00000020008d
:1008a00007f0a7000000ea004f06be004f05be009b
:1008b0004f04be000000060005ff2700058261000e
:1008c000070032000428e100010032002400050086
:1008d0000600070001003a00440005000408050076
:1008e00002000700f9ff3a00140005006f82610062
:1008f000810270008502710085027200000006000e
:10090000889fbe008a9fbe00841f780017000700e2
:100910004f00780011003300f0ff2f00838f6c0030
:1009200006003b00040565000a00a7000800370028
:1009300009f0a6001000200008003700820f5400c4
:10094000838f5c00030039001000200001003e008e
:100950000000200009f0a7000000ea004f05be00db
:100960004f04be000000e000000006000004be00ce
:10097000060007000003be000405be000200be0022
:1009800002000700844f750000000600c70ade0061
:10099000f107b200f50fb20008003200e1cf4200cb
:1009a000020032000170a00024000500810f7000d9
:1009b000010032000408050044000500810f7000aa
:1009c00002003a00140005008502e9000000400022
:1009d00081c04800fcff3b000170a000240005001e
:020000040000fa
:1009e0000030000000100000003000000010000087
:1009f0000020000000300000002000000030000057
:100a00000030000000300000002000000020000046
:100a10000010000000100000003000000030000056
:100a20000030000000200000001000000030000036
:100a30000030000000200000001000000030000026
:100a4000ffff0000a209000028090000d80c0000e8
:100a50008c0d0000421500000000000000000000a6
:100a60000000000000000000000000000000000086
:100a700001000000de250000000000000000000072
:100a80005365000070200000323800002032000062
:100a90003031000038310000303a000034350000b9
:080aa0003a35000034000000ab
:020000040000fa
:100aa8001800fa00889fbe008a9fbe008c1f78003d
:100ab80000067800f4af9f0085b79f0096b79f00a7
:100ac800a7b79f002c709000ef4060000068a3005b
:100ad8000b003200e4cf50003b003200e8cf50005a
:100ae8004e0032000046eb000c4078004f067800bc
:100af8004f05be004f04be000080fa00000006004b
:100b08000058a30018003200e2cf500067003200fe
:100b18008c003e00e1cf5000f2ff3a008c69900053
:100b28000c6090006fda97003c299000e10f5100ab
:100b3800250132000046eb0080cf5100eaff340067
:100b480001467800844f5000e6ff35000c407800dd
:100b58004f0678004f05be004f04be000080fa0023
:100b680000000600e6ff3700e2cf500062003200c6
:100b7800a6003e00e1cf5000daff3a008c699000f1
:100b88000c6090006fda97003c299000e10f51004b
:100b9800000132000046eb0080cf5100d2ff360042
:100ba80001467800844f5000ceff39000c40780091
:100bb8004f0678004f05be004f04be000080fa00c3
:100bc80000000600ceff37004c109000dc109000ab
:100bd8000c1490009c1490007fad97008fb597007f
:100be8003c2e9000e10f5600870132000801be003c
:100bf80004ff07000000e000baff34001cc0b30087
:100c08000801be000a00be00fcfe07000000e0006c
:100c1800b5ff34000046eb00b3ff37004c109000de
:100c2800dc1090006c119000fc1190000c149000e6
:100c38009c1490002c159000bc1590007faa97007a
:100c48008fb297001fb39700afb39700b4b79f0058
:100c5800c5b79f00d6b79f00e7b79f003c2e90000e
:100c6800e10f5600530132000802be000a03be001d
:100c7800ddfe07000000e0009aff34001cc0b3004e
:100c88000802be000a03be003fb09700cfb097002d
:100c98005fb19700efb19700cefe07000000e000bb
:100ca80091ff34000046eb008fff37004c11900095
:100cb8000c109000ffa99700bc289000e18f50000d
:100cc800db0032000046eb00800f510086ff340045
:100cd8001cc0b300830f500082ff35000c40780021
:100ce8004f0678004f05be004f04be000080fa0092
:100cf8000000060082ff37004c1190000c10900095
:100d0800ffa99700bc289000e18f5000bb0032007b
:100d18000046eb00800f510073ff36001cc0b30083
:100d2800830f50006fff39000c4078004f067800a1
:100d38004f05be004f04be000080fa000000060008
:100d48006fff3700e4cf50007a003200e8cf500040
:100d580064ff3a004c149000dc1490006c1590006d
:100d6800fc159000f8b79f0089bf9f009abf9f00ad
:100d7800abbf9f000c1090009c1090002c119000ad
:100d8800bc119000b4b79f00c5b79f00d6b79f00ad
:100d9800e7b79f00bc2a9000e18f5200ea003200ba
:100da8000046eb007fb497008fbc97001fbd9700eb
:100db800afbd97000040e10001c8e10002d0e100aa
:100dc80003d8e10048ff34001cc0b3003fb29700cd
:100dd800cfb297005fb39700efb397000400e1002c
:100de8000588e1000690e1000798e1003dff350025
:100df8000c4078004f0678004f05be004f04be0037
:100e08000080fa00000006003dff3700e4cf5000e4
:100e180030003200e8cf500032ff3a004c14900006
:100e2800dc1490006c159000fc159000f8b79f003a
:100e380089bf9f009abf9f00abbf9f000c10900016
:100e48009c1090002c119000bc119000b4b79f002a
:100e5800c5b79f00d6b79f00e7b79f00bc2a900090
:100e6800e18f52009d0032000046eb007fb49700ee
:100e78008fbc97001fbd9700afbd97000040e100f1
:100e880001c8e10002d0e10003d8e10016ff3600f6
:100e98001cc0b3003fb29700cfb297005fb3970072
:100ea800efb397000400e1000588e1000690e10037
:100eb8000798e1000bff39000c4078004f067800d6
:100ec8004f05be004f04be000080fa000000060077
:100ed8000bff37004c129000dc1290000c109000b1
:100ee8009c1090007fab97008fb397003c2990002f
:100ef800e10f51006a0032000046eb00800f5200fb
:100f0800818f5a00f8fe36001cc0b300860f5000cf
:100f1800878f5800f3fe39000c4078004f067800a0
:100f28004f05be004f04be000080fa000000060016
:100f3800f3fe37004c129000dc1290000c10900069
:100f48009c1090007fab97008fb397003c299000ce
:100f5800e10f5100430032000046eb00800f5200c1
:100f6800818f5a00e0fe34001cc0b300860f500089
:100f7800878f5800dbfe35000c4078004f0678005c
:100f88004f05be004f04be000080fa0000000600b6
:100f9800dbfe37000046eb0080cf5100d2fe310067
:100fa80002467800844f5000cefe3e000c40780088
:100fb8004f0678004f05be004f04be000080fa00bf
:100fc80000000600cefe37000046eb0080cf51003f
:100fd800c5fe3d0002467800844f5000c1fe3c002b
:100fe8000c4078004f0678004f05be004f04be0045
:100ff8000080fa0000000600c1fe37000046eb0042
:10100800800f5100b8fe310001467800830f500070
:10101800b4fe3e000c4078004f0678004f05be0035
:101028004f04be000080fa0000000600b4fe37003e
:101038000046eb00800f5100abfe3d0001467800f2
:10104800830f5000a7fe3c000c4078004f06780044
:101058004f05be004f04be000080fa0000000600e5
:10106800a7fe37000046eb00800f5200818f5a0020
:101078009dfe3d0002467800860f5000878f58007d
:1010880098fe3c000c4078004f0678004f05be00e3
:101098004f04be000080fa000000060098fe3700ea
:1010a8000046eb00800f5200818f5a008efe3100ff
:1010b80002467800860f5000878f580089fe3e0050
:1010c8000c4078004f0678004f05be004f04be0064
:1010d8000080fa000000060089fe37000046eb0099
:1010e8007fb497008fbc97001fbd9700afbd9700d6
:1010f8000040e10001c8e10002d0e10003d8e100ae
:1011080079fe3100054678003fb29700cfb29700cc
:101118005fb39700efb397000400e1000588e10092
:101128000690e1000798e1006efe3e000c40780052
:101138004f0678004f05be004f04be000080fa003d
:10114800000006006efe37000046eb007fb49700f3
:101158008fbc97001fbd9700afbd97000040e1000e
:1011680001c8e10002d0e10003d8e1005efe3d00c5
:10117800054678003fb29700cfb297005fb397005b
:10118800efb397000400e1000588e1000690e10054
:101198000798e10053fe3c000c4078004f067800a9
:1011a8004f05be004f04be000080fa000000060094
:1011b80053fe37000802be000a03be0085fd070083
:1011c8000000e00047fe3d000802be000a03be0022
:1011d8003fb09700cfb097005fb19700efb197008d
:1011e80081fd07000000e0003efe35000c4078005d
:1011f8004f0678004f05be004f04be000080fa007d
:10120800000006003efe37000801be007bfd070017
:101218000000e00033fe3d000801be000a00be00e9
:1012280078fd07000000e0002efe35000c40780035
:101238004f0678004f05be004f04be000080fa003c
:10124800000006002efe37000088eb008000eb004f
:10125800110098000041eb002150980021009800ef
:101268003250980031009800425098004100980090
:101278005250980051009800625098006100980000
:101288007250980071009800025898000108980060
:101298001258980043012100530898006022b800b2
:1012a8006033b800041098001510980026109800b4
:1012b8003710980044109800551098006610980050
:1012c800771098000118980022709800211898004b
:1012d8006022b800341898004518980022789800c1
:1012e80032789800611898007118980001209800c9
:1012f80022c09800242098003520980044209800a7
:101308005520980042c89800742098000528980035
:101318008238210003002000122898002328980012
:10132800110020003128980062089800730898007e
:1013380091808000c0089800000006000800fa00ac
:10134800889fbe008a9fbe008c9fbe000006780062
:101358002c189000e60f500019003e00e50f5000d1
:10136800370039008c1890002c7090006f40600096
:10137800e24f5000800132002f013e00e14f500043
:101388004c0132006fb29700ffb297000fbb970075
:101398009fbb97000c007800c1fd07000004e00027
:1013a8001701320040002000201e98004f06be00a2
:1013b8004f05be004f04be000080fa000000060082
:1013c800e70f500084003200e80f5000f7ff3a00a2
:1013d8007c189000ec1890000001e800721e98003c
:1013e800810f5000f1ff39000000eb00701e9800db
:1013f8002c7890000080fb008000eb004c219000ce
:10140800dc219000000041008180490040269800be
:1014180051269800e00f5000e08f5800e3ff350098
:1014280020002000201e98004f06be004f05be0079
:101438004f04be000080fa0000000600e0ff3700fd
:10144800e20f5000a3003200e40f5000d600320033
:10145800e10f5000d5ff3a007c189000ec1890007e
:101468000001e800721e9800810f50002d0039001d
:101478000000eb00701e98003c199000cc199000f9
:101488002c7890000080fb008000eb0000004100f9
:101498008180490084382100840f5000e08f580073
:1014a800040036006033b800361e9800471e9800c6
:1014b8006011b8008046eb008d83fb000040eb0014
:1014c8000703e800f283430006034300dc089000aa
:1014d8000082fb00ec027b00e5427a00857079000f
:1014e80061014100e0814900321e9800431e9800c6
:1014f8000040e800ecc07b00814f5000f3ff39004a
:101508008d46e8003c78900080cf5600eaff39000d
:101518007c2090008c289000820f5000838f580008
:10152800e10036008c1890002c7090006f4060002d
:10153800e24f500018013200ca003e00e14f50004f
:10154800ef0032000802be000a03be000c0078005b
:1015580053fd07000004e0009f0032004cc89000d3
:101568000004e0009c0032002c209000bc20900079
:10157800e00f5000e08f5800e60035003c1890005e
:10158800cc189000e00f5000e08f5800ee003200b9
:101598007c1990000200e000f2003a002c799000db
:1015a8000281fb008001eb0002005000838058009c
:1015b800402698005126980070002000201e9800b0
:1015c8004f06be004f05be004f04be000080fa0063
:1015d800000006007aff37007c189000ec18900095
:1015e8000001e800721e9800810f50006fff39005b
:1015f8000000eb00701e98003c199000cc19900078
:101608002c7890000080fb008000eb000000410077
:101618008180490084382100840f5000e08f5800f1
:10162800040036006033b800361e9800471e980044
:101638006011b8000044eb008883fb000040eb0019
:101648000703e800f283430006034300dc08900028
:101658000082fb00ec027b00e5427a00857079008d
:1016680061014100e0814900321e9800431e980044
:101678000040e800ecc07b00814f5000f3ff3900c8
:101688000844e8003c789000804f5400eaff390095
:101698004c209000dc20900002015000838158000b
:1016a8002c209000bc209000800f5100818f5900a1
:1016b80073003e000000eb00201e98004f06be009d
:1016c8004f05be004f04be000080fa00000006006f
:1016d8003bff37007c189000ec1890000001e800f0
:1016e800721e9800810f5000260039000000eb00a0
:1016f800701e98003c199000cc1990000044eb0033
:101708008883fb000040eb000703e800f2834300f6
:1017180006034300dc0890000082fb00ec027b001b
:10172800e5427a008570790061014100e081490055
:10173800321e9800431e98000040e800ecc07b0071
:10174800814f5000f3ff39000844e8003c789000ce
:10175800804f5400eaff39002c7890000080fb008d
:101768008000eb000201400083814800803821009e
:10177800800f5100e08f5900020036000000eb0096
:10178800201e98000c2090000000e8000026980019
:101798004f06be004f05be004f04be000080fa0091
:1017a8000000060006ff37000c2090000000e8004b
:1017b800002698007c1890000000e800701e980031
:1017c8004f06be004f05be004f04be000080fa0061
:1017d80000000600fafe37004816980059169800cf
:1017e8006a1698007b1698004f06be004f05be008b
:1017f8004f04be000080fa0000000600f0fe37002b
:101808006fb09700ffb097000fb997009fb9970086
:1018180040169800511698006216980073169800a2
:101828004f06be004f05be004f04be000080fa0000
:1018380000000600e2fe3700e44f500026003200a8
:10184800e84f5000cffe3a003102be002103be002f
:10185800e4b79f00f5b79f0086bf9f0097bf9f0022
:10186800c8fe3700e44f500022003200e84f500015
:1018780034ff3a003104be002105be0031ff3700b5
:101888001c2a9000ac2a90000201420083814a0081
:10189800820f5000838f5800c4fe39000000eb000f
:1018a800201e980085ff370010c0b30040ce980076
:1018b8001cff3700114078000082fb008002eb001b
:1018c8006033b800e4b79f00f5b79f0086bf9f005c
:1018d80097bf9f00abfe37001102be006033b8000f
:1018e800e4b79f00f5b79f0086bf9f0097bf9f0092
:1018f800a4fe37001104be006055b80011ff370080
:10190800114478000884fb008004eb006055b8009f
:101918000cff370040269800512698006000b80058
:10192800301e9800411e980080002000201e98005c
:101938004f06be004f05be004f04be000080fa00ef
:10194800000006009efe37002c7890000080fb0007
:101958008000eb001c299000ac2990000000510089
:101968008180590040269800512698007000200078
:10197800201e980012ff3700110078006102b8009d
:101988006033b800e4b79f00f5b79f0086bf9f009b
:1019980097bf9f007bfe3700110478008004eb009e
:1019a8006055b800e7fe3700407190008248780023
:1019b800307a90009440980040799000a2409800b6
:1019c800507a9000b440980060719000c24098002e
:1019d80030199000c0199000481add004811de0047
:1019e80002017200c819de00d24098000079900008
:1019f800e2409800107a9000f44098002059900036
:101a08008248980050099000cf91de00481add0006
:101a18004811de0002017200c819de0092489800e1
:101a280050099000cf91de00a3489800500990001b
:101a3800cf91de004819de00b248980040c19000fe
:101a4800c248980020219000b0219000481add007b
:101a58004811de0002017200d248980060c190006f
:101a6800e248980070c29000f448980000c99000bd
:101a78008250980040219000d0219000481add0043
:101a88004811de00020172009250980020c99000af
:101a9800a250980030ca9000b450980020d190000d
:101aa800c250980010299000a0299000481add0023
:101ab8004811de0002017200c819de00d2509800f9
:101ac80040d19000e250980050d29000f450980015
:101ad800405990008258980060099000f0099000e1
:101ae800481add004811de0002017200c819de0044
:101af8009258980060599000a25898007058900029
:101b0800b058980020c8b300c0589800d00105000c
:101b1800ef02b000889fbe008a9fbe008c9fbe0067
:101b28008e1f78000004be0092f79f001ac0b30011
:101b3800e34f5100c6003600890678005d40780002
:101b4800e84f5000c2003e000004e000c000320030
:101b58008000eb00211c98000040eb00317c9800cd
:101b6800012498006011b800321c9800431c9800aa
:101b7800b9419000c819dd00a94090008180fb00a0
:101b880081804100611c9800711c98006022b80097
:101b98006033b800441498005514980066149800ef
:101ba80077149800207c980021c0b30021c49800c5
:101bb80040cc98006022b80044249800552498002e
:101bc8001d04e0009d0232004ac0b30000467800c0
:101bd8008e3821008d017800890678009ff29700e1
:101be800e5e79f008a40e8000a80fb006d40780026
:101bf800e14f5000de0032009c0031008c84fb0075
:101c08008180fb000900e800000040008185460053
:101c18001b4290000482fb008002eb00482bdd0091
:101c2800c823de00870373004823dd002b429000a1
:101c38008482fb00040020000602420087824a00da
:101c48006dc378000683fb008003eb0004024300a9
:101c580085824b00043478004b409000890444008e
:101c6800a05498002879900002414000227c9800f6
:101c7800a8c0900000c0400020c498000281fb006a
:101c8800050009000207d80001005700cf80de00d8
:101c9800102c9800212c9800664545000c46e80059
:101ca800934f1600cfff3e008d047800830678001e
:101cb8006fe3970096f79f008a80fb000a45e800cb
:101cc8000a80fb008a45e80069c678002c749800f1
:101cd80069407800e14f5000790232006701310015
:101ce8008b81fb0003804400104290000482fb00bb
:101cf8008002eb00482bdd00c823de008703730059
:101d08004823dd00204290008482fb00040020006c
:101d18000603420087834a0069c279000482fb00f7
:101d28008002eb000602420087824a00041c9800e9
:101d3800e4c545008bf79f006f476600e24f5700e8
:101d48007d02320098013e00e14f57004b003a00f7
:101d58008ff397000782fb0069427a000482fb0038
:101d68008002eb006033b800041498001514980042
:101d780026149800371498000c04e00087013500f9
:101d88008c4078000154a000217498000ff097004f
:101d9800644540008a81fb00838044001142900022
:101da8000482fb008002eb00482bdd00c823de0024
:101db800870373004823dd00214090008082fb00e8
:101dc800040020000603420087834a0069c07900a6
:101dd8000082fb008002eb000602420087824a0074
:101de80031409000c800dd000000200004004000e1
:101df800858048002024980031249800c3100700eb
:101e080070249800012c9800644045000080fb0075
:101e1800694078000080fb00302c9800654545003b
:101e28001ff197008a4f5100350136000a85fb00e3
:101e380069407d00e14f5000710032009d467800f6
:101e48003d7c98001980fb00201c98000045eb00a1
:101e58000a4078004f0778004f06be004f05be00c5
:101e68004f04be00ef02b10000000600e24f500030
:101e780025003200e34f5000090032001ac0b300b9
:101e88000a4078004f0778004f06be004f05be0095
:101e98004f04be00ef02b10000000600f3ff370058
:101ea8008180fb00818546002b4090003b429000da
:101eb80091808000110178000200e000efff3200fd
:101ec8004822dd000080fb000002420092007800fa
:101ed800810f5200710032000100e000e7ff32007c
:101ee800640041000001780090007800810f5200e2
:101ef8006a003200640040000100e000f9ff3a0087
:101f08001ac0b300deff37008180fb0081854600e0
:101f18002b4090003b429000918080001101780096
:101f28000200e000d5ff32004822dd000080fb00ff
:101f38000002420092007800810f5200b100320086
:101f48000100e000cdff320064004100000178008c
:101f580090007800810f5200aa003200640040000f
:101f68000100e000f9ff3a001ac0b300c4ff3700cf
:101f78008180fb006dc27800818546009b429000fd
:101f8800ab409000bb439000928080001203780021
:101f98000600e00008003a00004078004f0778008b
:101fa8004f06be004f05be004f04be00ef02b10051
:101fb80000000600adff3700c83bdd008180fb0054
:101fc8008183430096007800818f530051003200ce
:101fd8000100e000f0ff32006400430000037800d5
:101fe80090007800818f53004a003200640040005e
:101ff8000100e000f9ff3a001ac0b300a0ff370063
:1020080088189000287090006f406000e24f5000e0
:102018007b02320067023e00e14f50000e003200a2
:102028007fa097008fa897001fa99700afa99700d6
:102038004014980051149800621498007314980082
:102048009d4678003d7c98001980fb00201c980074
:102058000045eb007eff3700114078000082fb004e
:102068008002eb006033b800f4a79f0085af9f00a3
:1020780096af9f00a7af9f007fa097008fa89700fb
:102088001fa99700afa99700401498005114980011
:102098006214980073149800e9ff37000100e0000b
:1020a80076ff3200920090000100e00073ff3200da
:1020b8008c84fb000900e80000004000113478001f
:1020c8004b40900089044400a0549800287990005f
:1020d80002414000227c9800a8c0900000c0400047
:1020e80020c498000281fb00050009000207d800ff
:1020f80001005700cf80de00102c9800212c98009a
:10210800664545000c46e800934f1600b5fe3e00b4
:10211800e5fe37000100e00058ff3200160090008d
:102128000000e00055ff3200900378001203900091
:1021380016017800828f53000c0032000200e00084
:102148004eff3200ec0043000103780011017800d3
:10215800828f530005003200ec8040000200e0004e
:10216800f9ff3a001ac0b30045ff37000200e0004b
:1021780042ff32000600e00040ff32008c84fb0082
:10218800c828dd000482fb008480400056029000cd
:10219800f3b79f00040001008900e8008180400037
:1021a80000b47800ffb197000000e00033ff320070
:1021b8004b40900089044400a0549800287990006e
:1021c80002414000227c9800a8c0900000c0400056
:1021d80020c498000281fb00050009000207d8000e
:1021e80001005700cf80de00102c9800212c9800a9
:1021f800664545000c46e800934f160079fe3e0000
:10220800a9fe37000100e0001cff32009200900098
:102218000100e00019ff32008c84fb000900e8008f
:1022280000004000013478004b40900089044400cd
:10223800a05498002879900002414000227c980020
:10224800a8c0900000c0400020c498000281fb0094
:10225800050009000207d80001005700cf80de0002
:10226800102c9800212c9800664545000c46e80083
:10227800934f16005bfe3e008bfe3700e24f500086
:10228800f2003200e34f5000fcfe3a000b80fb00e6
:1022980000804400a0429000b041900090808000ef
:1022a800100278001ac0b3000400e000e8fe320013
:1022b800c819dd008582fb00858241009401780001
:1022c800838f5200880132000300e000e0fe3200f4
:1022d800640042008c4078001ff1970000027800eb
:1022e80090017800838f52007d0132006400400025
:1022f8000300e000f9ff3a001ac0b300e0fe37001f
:1023080088189000287090006f406000e24f5000dd
:102318004a01320036013e00e14f50000e00320003
:102328003fa89700cfa897005fa99700efa997004b
:10233800401498005114980062149800731498007f
:102348009d4678003d7c98001980fb00201c980071
:102358000045eb00befe3700114078000082fb000c
:102368008002eb006033b800b4af9f00c5af9f0098
:10237800d6af9f00e7af9f003fa89700cfa8970070
:102388005fa99700efa9970040149800511498008e
:102398006214980073149800e9ff37008ff09700d3
:1023a800014547007bfe3700e44f5700f10032003b
:1023b800e84f5700b1fe3a008ff097008180fb008c
:1023c800b1a79f00818544001b4090000082fb005c
:1023d8008002eb006033b800c83bdd004835de0002
:1023e800870375004833dd00482dde0006037500bd
:1023f800c82add004825de00850275004822dd0078
:10240800b4b79f00c5b79f00d6b79f00e7b79f0036
:102418002b4090000082fb008002eb006033b80084
:102428008603780005037800840278000002eb0038
:102438003fb09700cfb097005fb19700efb197001a
:102448000400400085804800060149008781490052
:10245800f0af9f0081b79f0092b79f00a3b79f007e
:10246800bfa09700e9c278000580fb008000eb0060
:102478006011b800b0b79f00c1b79f00d2b79f00e6
:10248800e3b79f007faa97008fb297001fb397000a
:10249800afb397000002420081824a0002034b005a
:1024a80083834b00b4a79f00c5a79f00d6a79f00b2
:1024b800e7a79f00bb4290000580fb008000eb006f
:1024c8006011b800c811dd00480ade0083017200ff
:1024d8004809dd004802de0002017200c800dd0084
:1024e8000000eb003fa29700cfa297005fa39700e0
:1024f800efa397000000420081804a0002014b00d0
:1025080083814b00f0af9f0081b79f0092b79f0077
:10251800a3b79f00cb4290000580fb008000eb0032
:102528006011b8000001be006000b8007faa9700e3
:102538008fb297001fb39700afb397000000420017
:1025480081804a0002014b0083814b00b0a79f00a5
:10255800c1a79f00d2a79f00e3a79f00db4290007e
:102568000580fb008000eb006011b800c809dd00a1
:102578004802de00830172004801dd006000b800f7
:102588003fa29700cfa297005fa39700efa3970001
:102598000000420081804a0002014b0083814b0009
:1025a800f0af9f0081b79f0092b79f00a3b79f002d
:1025b800eb4290000580fb008000eb006011b80042
:1025c800800178000001eb006000b8007faa970046
:1025d8008fb297001fb39700afb397000000420077
:1025e80081804a0002014b0083814b00b0b79f00f5
:1025f800c1b79f00d2b79f00e3b79f007b4290000e
:102608000482fb008002eb006033b800c823dd00c1
:102618000003eb006022b8000402400085824800f5
:10262800060349008783490004149800151498008c
:102638002614980037149800cffd37006bc0b300fc
:1026480050002000410020009ffd37000b80fb0058
:1026580000804400a0429000b0419000908080002b
:10266800100278001ac0b3000400e000f8fd320040
:10267800c819dd008582fb0085824100940178003d
:10268800838f52008e0032000300e000f0fd32001c
:10269800640042008c4078001ff197000002780027
:1026a80090017800838f520083003200640040005c
:1026b8000300e000f9ff3a001ac0b300f0fd37004c
:1026c8008b80fb0069c678008180440091439000ac
:1026d80021429000b14090009680800096017800d9
:1026e800004578000300e000d9fd3200c808dd008d
:1026f8000482fb000482400093007800810f52009e
:10270800830032000100e000d1fd32006480410006
:102718001ff197008001780090007800810f520027
:102728007a003200640040000100e000f9ff3a003e
:102738001ac0b300d2fd37000b4578008a82fb002f
:1027480005824400144290004823dd0069c27a00e3
:102758000482fb00040243008002eb006033b800ef
:10276800041498001514980026149800371498003b
:1027780081fd37000ff097008082fb00058244003e
:10278800144390000683fb008003eb00483ddd0006
:10279800c835de008b0575004835dd002443900000
:1027a8008683fb00060020000a0543008b854b004a
:1027b80069c37a000683fb008003eb000a03430029
:1027c8008b834b0034429000c822dd0004002000b7
:1027d8000602420087824a006033b8000414980059
:1027e80015149800261498003714980062fd3700d5
:1027f800e44f500021003200e84f5000c8fe3a0074
:102808003102be002103be00b4af9f00c5af9f00d8
:10281800d6af9f00e7af9f003fa89700cfa89700cb
:102828005fa99700efa997004014980051149800e9
:102838006214980073149800c1fe370011007800e4
:102848006102b8006033b800b4af9f00c5af9f0005
:10285800d6af9f00e7af9f003fa89700cfa897008b
:102868005fa99700efa997004014980051149800a9
:102878006214980073149800b1fe37001102be006c
:102888006033b800b4af9f00c5af9f00d6af9f00bc
:10289800e7af9f003fa89700cfa897005fa99700d0
:1028a800efa99700401498005114980062149800fa
:1028b80073149800a2fe37000146780092f79f0033
:1028c8001ac0b3000300e00061fd3200140090005c
:1028d8000000e0005efd3200001c980014fd370087
:1028e8000146780092f79f001ac0b3000300e00089
:1028f80057fd3200140090000000e00054fd320043
:1029080010007800001c980009fd370092f79f001e
:102918001ac0b3000100e0004dfd320093029000a0
:102928000500e0004afd320015027800960190008b
:1029380093007800810f52000e0032000100e00081
:1029480043fd32006c8041001ff197008001780040
:1029580090007800810f5200050032006c004000a2
:102968000100e000f9ff3a001ac0b30044fd370047
:1029780092f79f001ac0b3000100e00034fd320056
:102988000300e00032fd3200c838dd000c80fb0097
:1029980080804000d301900005007800030001000a
:1029a800001c98000000e00029fd32002876900005
:1029b800dffc3700e44f500021003200e84f5000a0
:1029c80097fd3a003102be002103be00f4a79f0024
:1029d80085af9f0096af9f00a7af9f007fa097008d
:1029e8008fa897001fa99700afa9970040149800d7
:1029f80051149800621498007314980090fd3700e1
:102a0800110078006102b8006033b800f4a79f0095
:102a180085af9f0096af9f00a7af9f007fa097004c
:102a28008fa897001fa99700afa997004014980096
:102a380051149800621498007314980080fd3700b0
:102a48001102be006033b800f4a79f0085af9f0055
:102a580096af9f00a7af9f007fa097008fa8970011
:102a68001fa99700afa99700401498005114980027
:102a7800621498007314980071fd37000000050077
:102a880021c0b30041409800b000900012c2b300ca
:102a9800924098009000900001040100504190007d
:102aa800d1c2b300814f5100ba003600e2c2b30070
:102ab80042409800b00190000041eb00924198001c
:102ac800b001900054c0b300a4419800b001900038
:102ad800b241980092808000a209900030019000d5
:102ae8004341980092808000a20990003001900034
:102af800c819de005341980030019000d041900081
:102b0800634198003001900003c1b30073419800fd
:102b18003001900023c8b3000349980030019000a9
:102b280033c5b3001349980030019000f2c1410049
:102b38002349980030019000ebc1410033499800c7
:102b4800b001900022c3b300c2499800b0019000c0
:102b580084c3b300d4499800b0019000e2499800ba
:102b6800b001900002c1e900f2499800b00290005b
:102b780013c3b30083529800b00290009452980097
:102b88003002900023529800b0019000b251980092
:102b98003001900043c3b3004351980030019000c6
:102ba8008341e8005351980092808000b209900058
:102bb8000300e0007e00320032099000b00090006f
:102bc80012417800e250980091808000310990000d
:102bd800b000900012419000f2509800918080005f
:102be80031099000b000900022419000825898006e
:102bf8009180800031099000b0009000424190001f
:102c0800925898009180800031099000b00090009f
:102c180052419000a258980091808000310990009c
:102c2800b000900072419000b258980091808000e6
:102c380031099000b000900002499000c2589800f5
:102c48009180800031099000b000900012499000f6
:102c5800d25898009180800031099000b00090000f
:102c680022499000e2589800918080003109900034
:102c7800b000900032499000f2589800918080008e
:102c880031099000b000900042499000826098009d
:102c98009180800031099000b00090006249900056
:102ca800926098009180800031099000b0009000f7
:102cb80072499000a26098009180800031019000d4
:102cc800b0009000b26098009180800041019000af
:102cd800b0009000c260980091808000410190008f
:102ce800b00090004811de00d2609800918080000a
:102cf80051019000e1019000b0009000e26098005e
:102d08009180800051019000e1019000b000900096
:102d1800481add004811de0002017200c819de0001
:102d2800f26098009180800051019000e1019000cc
:102d3800b000900083689800918080005101900055
:102d4800e1019000b00090004819de0092689800f8
:102d580092808000cf91de00b0009000a2689800b9
:102d6800b0009000c81ade00481bdd004812de00e3
:102d780004027300b4689800b0009000c36898001b
:102d8800b00090004819de00d268980090009000ca
:102d98000104010021c0b30041409800b000900038
:102da80052c1b300924098009000900001040100c5
:102db8003001900021619800300190001161980065
:102dc800300190000161980030019000715998001d
:102dd80030019000615998003001900051599800d5
:102de8003001900041599800300190003159980005
:102df8003001900021599800300190001159980035
:102e080030019000015998003001900071519800ec
:102e1800300190006151980091808000310190004c
:102e2800b0009000b260980091808000410190004d
:102e3800b0009000c260980091808000410190002d
:102e4800b00090004811de00d260980091808000a8
:102e580051019000e1019000b0009000e2609800fc
:102e68009180800051019000e1019000b000900035
:102e7800481add004811de0002017200c819de00a0
:102e8800f26098009180800051019000e10190006b
:102e9800b0009000836898009180800051019000f4
:102ea800e1019000b00090004819de009268980097
:102eb80092808000cf91de00b0009000a268980058
:102ec800b0009000c81ade00481bdd004812de0082
:102ed80004027300b4689800b0009000c3689800ba
:102ee800b00090004819de00d26898009000900069
:102ef80001040100881f780000047800b8009000e1
:102f08002142900081037800574078009280800029
:102f1800920278000500e000880032004822dd00b7
:102f28000080fb000002420095017800830f5200e8
:102f3800130032000300e000080032006480420001
:102f48008002780090017800830f52000c00320054
:102f5800640040000300e000f9ff3a0000c4b30039
:102f680021c0b30041449800804b7800980090003d
:102f780008007800010001004f04780000000600f6
:102f88000300e000f5ff320015009000a201900058
:102f98000300e0001a003200a20290008001eb005a
:102fa800950f120012003200a20290004300200088
:102fb8001500e00074003200a2029000e58279005a
:102fc800848f52000a003200a202900064834100fc
:102fd800e58279000500e0000500320086017800ee
:102fe800a2029000e5827900848f5200f6ff3a0031
:102ff80022029000648279000400e0003b003a005d
:10300800920190000300e000650032001003780090
:10301800120290008001eb00940f1300120032009e
:10302800120290001400e0000f003200c3002000dc
:103038001202900064827900860f52000a00320062
:1030480012029000ec824100648279000400e000e2
:103058000500320085017800120290006482790030
:10306800860f5200f6ff3a0012029000648279003f
:103078000400e000130032001201900083014100b7
:103088004841900063415100e3804000c301900033
:10309800030001000004e00030003a0021c0b30042
:1030a80041449800b8009000904098009800900023
:1030b80008007800010001004f04780000000600b5
:1030c800afff370020c0b3004044980010c4b300dd
:1030d800804b7800980090000800780001000100fb
:1030e8004f04780000000600a5ff37002201900079
:1030f800830141004841900063415100e380400052
:1031080093019000030001000004e0009aff3200e0
:1031180020c0b300404498003800900021c4b30098
:103128001140980098009000080078000100010004
:103138004f0478000000060091ff370030c4b30048
:1031480021c0b30041449800804b7800980090005b
:10315800080078000100010087ff370020c0b30095
:10316800404498003800900041c1b30011409800d5
:103178009800900008007800010001004f047800d2
:10318800000006007eff37008001eb00220290005d
:10319800648279000400e00099ff3200d3ff370011
:1031a80020c0b3004044980040c4b300804b78006e
:1031b8009800900008007800010001004f04780092
:1031c800000006006eff3700881f780000047800b2
:1031d800380390008680e8009142780056407800d5
:1031e80093808000130278000400e000530032004e
:1031f800c82add000080fb008082420014017800ac
:10320800828f5200130032000200e00008003200f2
:10321800640042000002780010017800828f52009a
:103228000c003200640040000200e000f9ff3a00a0
:1032380000c4b30021c0b30041449800004b78009b
:103248009800900008007800010001004f04780001
:10325800000006000200e000f5ff320014009000b4
:10326800130190000200e0003c0032009003780057
:10327800130290000001eb00948f1300120032003b
:10328800130290001400e0000f003200c20020007a
:103298001302900064027900870f52000a0032007e
:1032a80013029000ec024100640279000400e0007f
:1032b80005003200050178001302900064027900cd
:1032c800870f5200f6ff3a0013029000640279005b
:1032d8000400e0000f0032009301900002814100d9
:1032e800320190000200010000c0e800404498004c
:1032f800380090008040eb00114098009800900042
:1033080008007800010001004f0478000000060062
:10331800d0ff370020c0b3004044980010c4b30069
:10332800004b780098009000080078000100010028
:103338004f04780000000600c6ff370030c4b30011
:1033480021c0b30041449800004b780098009000d9
:103358000800780001000100bcff370020c0b3005e
:103368004044980040c4b300004b78009800900097
:1033780008007800010001004f04780000000600f2
:10338800b4ff3700b000900051417800e24f51007f
:10339800380032000c003600e44f51003f00320084
:1033a8001e00310033002000928080003301980015
:1033b8000041eb008248780021c0b30041409800ea
:1033c80090009000010401000204e0000a003a00a5
:1033d8008001eb0092808000330198000041eb00ef
:1033e8008248780021c0b3004140980090009000c6
:1033f80001040100f4ff3700e14f510013003200cf
:1034080022c2b3008248780021c0b300414098002e
:103418009000900001040100ebff3700e54f5100d8
:10342800f7ff3a0053002000928080003301980093
:103438000041eb008248780021c0b3004140980069
:103448009000900001040100dfff37001300200006
:1034580092808000330198000041eb008248780098
:1034680021c0b30041409800900090000104010081
:10347800d5ff370023002000928080003301980098
:103488000041eb008248780021c0b3004140980019
:103498009000900001040100cbff3700430020009a
:1034a80092808000330198000041eb008248780048
:1034b80021c0b30041409800900090000104010031
:1034c800c1ff3700b00090000041eb009240980027
:1034d8009180800031019000b0009000a2409800d7
:1034e80031c0b300414098009000900001040100f1
:1034f80022c0b3004240980030019000114198006a
:103508009000900001040100416322006303200041
:10351800818141004254210082287800838f500025
:10352800fdff3a0061632200410098000000060098
:1035380040009000215521000108780061a6210073
:1035480011009800619c210021009800e17721007a
:1035580021109800818e21001110980000000600ab
:103568000c00fa00604e80008000eb00008fbe0067
:10357800704e80008000eb00640147000089be00a7
:10358800640047001000be00c000dd0000002000fd
:103598003e014000ae8148000200be0068014700bd
:1035a8000089be00680047001000be000080fa00d5
:1035b800000006000400fa00008fbe001e0078001c
:1035c800804e88001e00be004008de000000780023
:1035d800904e88000080fa00000006000200fa0001
:1035e80031738000010f78000968a9000080fa0093
:1035f800000006000000fa0063eea8000080fa0050
:10360800000006000200fa00000f780000c0270042
:103618001e006000801988000080fa000000060083
:103628000200fa00000f780000c027001e006000aa
:10363800301b88000080fa00000006000200fa0033
:10364800000f780000c027001e006000e01c880002
:103658000080fa00000006000000fa005018800000
:103668000080fa00000006000200fa009061800065
:10367800000f78000dc8a9000080fa0000000600bd
:103688000000fa004f080700490a07000a08070067
:103698000000eb009028890000a32100e111200020
:1036a800c4ff0700770ea8000300370000000000e1
:1036b80001003700000000004a0a0700e107070080
:1036c800bd0707000004e0000a003200a0288100be
:1036d8000000e00004003a0010002000a028890043
:1036e800772ea800030037000000eb00a02889000f
:1036f800772ea900bd0707000004e000ebff3200a9
:10370800602881000000e000eaff3a001000200075
:1037180060288900e8ff37000200fa000000eb008b
:10372800000f7800b0288100e10f500026003a0011
:103738000000eb00000f78001f0037001e00780023
:1037480080004000004f28000080400010017800f1
:103758001e00780080004000a04d2200008040003c
:10376800020878001e007800800040000050280001
:1037780000804000100178001e00780080004000a2
:10378800a04e220000804000020878001e00780049
:10379800800040000051280000804000100178009f
:1037a8001e00780080004000a04f220000804000ea
:1037b800020878001e0fe8001e007800e70f50008e
:1037c800deff3600280037000000eb00000f78000d
:1037d80022003700710020001e8050008000400049
:1037e800004f280000804000100178001e0078007b
:1037f80080004000a04d22000080400002087800b0
:10380800710020001e8050008000400000502800f9
:1038180000804000100178001e0078008000400001
:10382800a04e2200008040000208780071002000ad
:103838001e80500080004000005128000080400099
:10384800100178001e00780080004000a04f220080
:1038580000804000020878001e0fe8001e00780073
:10386800e70f5000dbff36000080fa00000006007a
:103878000000fa00dc0707001029890010298100e0
:103888000000e0001500320010298100e60f50000a
:1038980012003e001029810080004000a04d220047
:1038a800008040001000780056ff070010298100b2
:1038b80080004000a04e22000080400010007800e8
:1038c80057ff07001029810080004000a04f220008
:1038d800008040001000780058ff07000080fa00c0
:1038e800000006000000fa00889fbe008a9fbe0004
:1038f80090288100e30f50003b003200e30f500096
:1039080005003e00e10f50001d003200e10f50009d
:1039180087003e0005003700e50f50007a003200ae
:10392800e50f50005e00390088003700c80707001f
:103938000000eb005028890047ff07003029890064
:10394800501880004200de00202989006000b8007d
:10395800c0288900d12889000000eb0010298900bf
:103968000000eb00602c89007c000700a000070025
:103978001601070010002000902889007300370006
:10398800a0288100e10f500007003a00b02881000c
:1039980061ff0700100020005028890015ff07006c
:1039a800300020009028890060288100e10f500035
:1039b80061003a00b02881000000e00003003a00ee
:1039c80010002000b0288900020037000000eb003a
:1039d800b02889000000eb0060288900b028810029
:1039e8004dff070059003700a1ff0700512981004a
:1039f800007d20000180b9004109dd004f05de008f
:103a08000a057100cf8dde000a007800e0288900e1
:103a1800e02e8100e02b8900e0288100d02b89006e
:103a2800e12b8100d02b8100e3572200c2562200ef
:103a3800480b070031298100f02b81000180b90073
:103a48004109dd004f04de0008047100cf8cde0060
:103a5800080078002029890020298100a307070091
:103a680060288100e10f500007003a000000eb00d9
:103a780020298900202981009c0707007407070076
:103a88004000200090288900a02881000000e00064
:103a98002b003a0050002000902889002b003700a6
:103aa80060288100e10f50000c003a00b028810026
:103ab8000000e00003003a0010002000b028890050
:103ac800020037000000eb00b02889000000eb007e
:103ad80060288900b02881000fff0700c2288100f4
:103ae800d328810060e3260011002000800f5100d8
:103af800818f59001400360030002000902889007a
:103b080047070700110037000000eb001029890063
:103b18000000eb0020298900202981007307070095
:103b28004b0707000000eb009028890007003700ca
:103b38000000000005003700000000000300370007
:103b48000000000001003700000000004f05be0023
:103b58004f04be000080fa00000006000000fa00d2
:103b6800d0cc2000802b890010022000902b8900e7
:103b7800e0fd2700a02b8900e0fd2700b02b89007d
:103b880030332100c02b89006000b800602b890009
:103b9800712b89000000eb00f02b8900f028200031
:103ba800e02a890020042000f02a8900e0fd27008f
:103bb800002b8900e0fd2700102b89000000eb0096
:103bc800202b89006000b800c02a8900d12a89000a
:103bd8000000eb00502b890010a32100e111200008
:103be800402c8900512c89000080fa000000060052
:103bf8000200fa000000eb00000f78000800370010
:103c0800310420001e80400080004000a0502200a7
:103c1800008040008000eb00010878001e0fe800db
:103c28001e007800ef0f5000f5ff36000000eb0093
:103c3800702c89006000b800802d8900912d8900c2
:103c48000000eb00a02d89000080fa0000000600ab
:103c58000400fa008e80e80080087800702c81004b
:103c68003004b00080004000a050220000804000d6
:103c78008e80e80011087800702c81000000e800b0
:103c8800702c8900702c8100ef0f50000200360064
:103c98000000eb00702c89006000b800802d8900be
:103ca800912d89000000eb00000f78001600370006
:103cb800842d8100952d8100310420001e80400054
:103cc80080004000a05022000080400010007800d2
:103cd800cf80de000400400085804800802d8900e8
:103ce800912d8900802d8100912d81004c0add00e5
:103cf8004401de0002017200c489de00020078007f
:103d0800a02d89001e0fe8001e007800ef0f50005c
:103d1800e7ff36000080fa00000006000800fa00fd
:103d2800008fbe00202c8100312c81003e01100044
:103d3800ae8118000200be00002c8900112c8900f9
:103d48001e02be00242c8900352c8900002c81001d
:103d5800112c8100e00f5000e08f580008003d0052
:103d6800422c8100532c8100002c8100112c8100f1
:103d78000200400083804800002c8900112c890033
:103d8800002c8100112c8100e00f5000e08f5800ba
:103d98000c003200002c8100112c810000017800f9
:103da80004a32100e5112000240798003507980096
:103db8002e029000be0290000500090042aad80019
:103dc800602c89000080fa00000006000200fa005a
:103dd8000000eb00000f7800080037007105200094
:103de8001e80400080004000a0502200008040005b
:103df8008000eb00010878001e0fe8001e00780024
:103e0800ef0f5000f5ff36000000eb00b02d8900e1
:103e18006000b800c02e8900d12e89000000eb0098
:103e2800e02e89000080fa00000006000400fa0075
:103e38008e80e80080087800b02d81007005b00001
:103e480080004000a0502200008040008e80e800e2
:103e580011087800b02d81000000e800b02d89001d
:103e6800b02d8100ef0f5000020036000000eb007b
:103e7800b02d89006000b800c02e8900d12e8900bd
:103e88000000eb00000f780016003700c42e8100f8
:103e9800d52e8100710520001e8040008000400062
:103ea800a05022000080400010007800cf80de0083
:103eb8000400400085804800c02e8900d12e89006a
:103ec800c02e8100d12e81004c0add004401de00a5
:103ed80002017200c489de0002007800e02e890029
:103ee8001e0fe8001e007800ef0f5000e7ff3600b5
:103ef8000080fa00000006000000fa000023ef002e
:103f080001188000f0fc2f00008060000018880075
:103f180001188000c0ff2f00008060000018880092
:103f28000103a9000623ef000823ef0070382100e1
:103f3800501888000223ef000423ef000c23ef0041
:103f48000e23ef001023ef001223ef001423ef00dd
:103f58001623ef001823ef001a23ef001c23ef00ad
:103f68001e23ef002023ef002223ef002423ef007d
:103f78002623ef002823ef002e000700d3000700b8
:103f880078010700130007000868a9002868a9003d
:103f980001438000f0ff28008080600000002500b9
:103fa8000100700000438800000023008019880089
:103fb80000002300301b880000002300e01c88005c
:103fc8002be3a80061e3a80097e3a8000080fa00ab
:103fd800000006000000fa00e11c8000f03f2f00fe
:103fe80000806000e01c8800311b8000f03f2f003b
:103ff80000806000301b880081198000f03f2f008e
:1040080000806000801988009da3a80067a3a8000d
:1040180031a3a8009d83a8006783a8003183a80066
:10402800ba23ef008423ef004e23ef000080fa004c
:10403800000006000000fa002a23ef002be3a90085
:104048005119800070fe2f00008060000030a00031
:10405800501988005119800080ff2f0000806000ef
:104068000020a0005019880051198000f08f2f00ff
:1040780000806000501988002c23ef002de3a90070
:104088002dc3a8002da3a8002d63a80061198000e6
:10409800f08f2f0000806000601988002cc3a900f1
:1040a8006119800000ff2f000080600060198800ff
:1040b8002e23ef003023ef0031e3a90031c3a9001c
:1040c80031a3a9003183a90081198000f03f2f0096
:1040d800008060008019880081198000f0cf2f00cf
:1040e800008060008019880081198000f0f32f009b
:1040f800008060008019880081198000f0fc2f0082
:1041080000806000801988008119800030ff2f002e
:10411800008060008019880081198000c0ff2f008e
:1041280000806000801988003223ef009119800018
:10413800f0ff280000806000901988003303a90070
:1041480091198000f0fc2f00008060000040a00062
:10415800901988003263a8003243a8003223a900ce
:104168003203a9003423ef00a1198000f07f20005a
:1041780000806000a01988003543a9003523a900f4
:104188003503a800a119800070fe2f000080600090
:104198000030a000a0198800a119800080ff2f001e
:1041a80000806000a01988003623ef0037e3a900db
:1041b80037c3a90037a3a9003783a900b119800024
:1041c800f0cf2f0000806000b019880036e3a90006
:1041d80036c3a90036a3a900b119800000fe2f003c
:1041e80000806000b01988003823ef0039e3a90087
:1041f800c1198000f0ff28000080600000c0a00006
:10420800c01988003963a900c1198000f08f2f00f8
:1042180000806000c019880038c3a90038a3a8002e
:10422800c119800000fe2f00008060003001b3003b
:10423800c01988003a23ef003be3a900d119800098
:10424800f0ff280000806000d0198800d119800094
:10425800f08f2f0000806000d01988003a83a900f1
:104268003a63a900d119800080ff2f000080600008
:10427800d01988003c23ef003e23ef004023ef00d5
:104288004223ef004423ef004623ef004823ef00ca
:104298004a23ef004c23ef004e23ef005023ef009a
:1042a8005223ef00800c2000d01a8800800c2000d8
:1042b800e01a880060382100a01a88005623ef0011
:1042c8005823ef000080fa00000006000000fa0002
:1042d8006023ef0061e3a900011b800070fe2f003e
:1042e800008060000030a000001b8800011b8000d7
:1042f80080ff2f00008060000020a000001b8800c5
:10430800011b8000f08f2f0000806000001b8800d8
:104318006223ef0063e3a90063c3a80063a3a800b6
:104328006363a900111b8000f08f2f0000806000dc
:104338000090a000101b880062c3a900111b800018
:1043480000ff2f00008060000000a000101b880004
:104358006423ef006623ef0067e3a90067c3a900a1
:1043680067a3a9006783a900311b8000f03f2f00d5
:1043780000806000301b8800311b8000f0cf2f00c8
:1043880000806000301b8800311b8000f0f32f0094
:1043980000806000301b8800311b8000f0fc2f007b
:1043a80000806000301b8800311b800030ff2f0028
:1043b80000806000301b8800311b8000c0ff2f0088
:1043c80000806000301b88006823ef00411b8000dc
:1043d800f0ff280000806000401b88006903a900e6
:1043e800411b8000f0fc2f00008060000040a0000e
:1043f800401b88006863a8006843a8006823a900d8
:104408006803a9006a23ef00511b8000f07f200099
:1044180000806000501b88006b43a9006b23a90033
:104428006b03a900511b800070fe2f000080600004
:10443800501b8800511b800080ff2f000080600007
:10444800501b88006c23ef006de3a9006dc3a90021
:104458006da3a9006d83a900611b800000302000b6
:1044680001007000601b88006ce3a9006cc3a90000
:104478006ca3a900611b800000fe2f000080600073
:10448800601b88006e23ef006fe3a900711b80009a
:10449800f0ff28000080600000c0a000701b8800aa
:1044a8006f63a900711b8000f08f2f0000806000ef
:1044b800701b88006ec3a9006ea3a800711b800042
:1044c80000fe2f00008060003001b300701b8800e0
:1044d8007023ef0071e3a900811b8000f0ff280022
:1044e80000806000801b8800811b8000f08f2f00f7
:1044f80000806000801b88007083a9007063a90099
:10450800811b800080ff2f0000806000801b8800d6
:104518007223ef007423ef007623ef007823ef0077
:104528007a23ef007c23ef007e23ef008023ef0047
:104538008223ef008423ef008623ef008823ef0017
:10454800800c2000801c8800800c2000901c8800b3
:104558008a23ef008c23ef008e23ef000080fa00ff
:10456800000006000000fa009623ef0097e3a90078
:10457800b11c800070fe2f00008060000030a00099
:10458800b01c8800b11c800080ff2f0000806000f4
:104598000020a000b01c8800b11c8000f08f2f0004
:1045a80000806000b01c88009823ef0099e3a90000
:1045b80099c3a80099a3a8009963a900c11c800009
:1045c800f08f2f00008060000090a000c01c8800c1
:1045d80098c3a900c11c800000ff2f000080600064
:1045e8000000a000c01c88009a23ef009c23ef0065
:1045f8009de3a9009dc3a9009da3a9009d83a900cf
:10460800e11c8000f03f2f0000806000e01c880063
:10461800e11c8000f0cf2f0000806000e01c8800c3
:10462800e11c8000f0f32f0000806000e01c88008f
:10463800e11c8000f0fc2f0000806000e01c880076
:10464800e11c800030ff2f0000806000e01c880023
:10465800e11c8000c0ff2f0000806000e01c880083
:104668009e23ef00f11c8000f0ff2800008060000e
:10467800f01c88009f03a900f11c8000f0fc2f00ab
:10468800008060000040a000f01c88009e63a80025
:104698009e43a8009e23a9009e03a900a023ef0023
:1046a800011d8000f07f200000806000001d880050
:1046b800a143a900a123a900a103a900011d80000d
:1046c80070fe2f0000806000001d8800011d800022
:1046d80080ff2f0000806000001d8800a223ef00eb
:1046e800a3e3a900a3c3a900a3a3a900a383a900c6
:1046f800111d80000030200001007000101d88008e
:10470800a2e3a900a2c3a900a2a3a900111d8000c9
:1047180000fe2f0000806000101d8800a423ef0019
:10472800a5e3a900211d8000f0ff2800008060009b
:1047380000c0a000201d8800a563a900211d8000dd
:10474800f08f2f0000806000201d8800a4c3a900fe
:10475800a4a3a800211d800000fe2f000080600097
:104768003001b300201d8800a623ef00a7e3a900ad
:10477800311d8000f0ff280000806000301d880097
:10478800311d8000f08f2f0000806000301d8800f0
:10479800a683a900a663a900311d800080ff2f0011
:1047a80000806000301d8800a823ef00aa23ef00d6
:1047b800ac23ef00ae23ef00b023ef00b223ef00ed
:1047c800b423ef00b623ef00b823ef00ba23ef00bd
:1047d800bc23ef00be23ef00800c2000301e8800b1
:1047e800800c2000401e8800c023ef00c223ef0089
:1047f800c423ef000080fa0000000600110020002a
:10480800110898008000eb000108980000000600dd
:10481800e4874700889fbe008a9fbe008c9fbe0029
:104828008e1f780000047800980c90005ac5b300d9
:104838003b002000e18f540015003a00580090001a
:10484800b0009000010001000004e00023003200e5
:1048580008089000e20f50000501320057003e00a2
:104868000000e0009f003a004a5498005054980015
:1048780058009000100178008a407800020001007a
:10488800090c9800980c9000e18f5400ebff32005f
:104898000900e00014003a0058009000a0009000c1
:1048a800010001000004e0000f00320058009000f1
:1048b8009000900001000100f8009000e28f500085
:1048c800b600320017003e000100e00063003a0025
:1048d80051c5b300814f500018013200980c900068
:1048e8000900e000ecff32006a0644009080800076
:1048f800c00890000100e00004003200c0089000e9
:10490800a1189000e48f50004a0132004f07780048
:104918004f06be004f05be004f04be004f00b10059
:1049280000000600e48f5000800032008500390046
:10493800e58f5000040032000000eb00700498007e
:10494800980c9000e6ff3700c850900052c5b3009d
:1049580082cf500010003200e2cf50000e0032002b
:10496800814f500010003a00380090001040780045
:10497800fa4f5000f6003e000080fb00c80090008f
:1049880000004000e1007800080078000100010004
:10499800980c9000d2ff370081c0ea00415498007b
:1049a800814f5000f0ff320031c1b3000800780099
:1049b800cffa0700980c9000c9ff3700e40f5000a9
:1049c800850032008c003900e50f500005003200e8
:1049d8000000eb00100c9800700498008004eb00b5
:1049e800adff3700c850900050c5b30080cf5000cd
:1049f8000d003200e2cf50000b003200580090004a
:104a0800100178000200010058009000d0009000ca
:104a1800010001000000eb00100c980070049800e1
:104a28008004eb009cff370081c0ea0041549800e5
:104a38005800900010017800020001005800900012
:104a4800d0009000010001000000eb00100c98005d
:104a5800700498008004eb008fff3700e18f50004e
:104a6800b5ff3a000004e0001b003200d840900077
:104a7800814f5000db003e0052c5b3008240400029
:104a8800415498004044980059549800210020004f
:104a98007104980082407800814f50000200320073
:104aa800e24f50008dff3a000af0b70020002000c6
:104ab800408088004000200070049800980c900006
:104ac80087ff370051c5b300a200210012417800ca
:104ad800814f5100cb00320079049800980c900067
:104ae8007fff3700e10f5000b9ff3a00c84090003f
:104af80048509000014040004054980058009000f1
:104b08001001780002000100484090008a4f5000d0
:104b180083003200e24f5000810032002000200064
:104b2800000c9800980c900042ff37000004e00049
:104b3800e4ff3a004080800070049800980c9000d0
:104b480067ff3700c850900080c04000415498006b
:104b5800d85090008180fb003801900000f1780067
:104b6800d85090008140e800515498004841900086
:104b780082cf50004d00390051c5b300814f50001d
:104b880078003200e24f50007600320050002000da
:104b980070049800980c900051ff3700c8489000a6
:104ba80080cf5000ccff3a004850900001404000b0
:104bb8004054980050c5b30080cf500081003200a7
:104bc800e2cf50007f0032003000200070049800cf
:104bd800980c900042ff37005800900010017800b0
:104be8008040eb000200010040808000000c98002b
:104bf800980c90000fff3700d85090008180fb0080
:104c0800380090008100400048509000114040005a
:104c180040549800580090001001780091407800a6
:104c280002000100d85090000180fb008001e800dc
:104c3800484190000281fb00828f51002700350017
:104c480038019000624078008a4f500054003200ca
:104c5800e24f50005200320050002000000c980033
:104c68008140e80051549800980c9000f1fe3700fc
:104c7800c8489000485090000140400040549800b7
:104c88005800900010017800020001004848900088
:104c98008a4f50001c003200e24f50001a003200c8
:104ca8000b0c9800980c9000e2fe370051c5b30039
:104cb800814f500002003200e24f5000c2ff3a001c
:104cc8000af0b70030002000408088004000200033
:104cd80070049800980c900001ff3700380190008c
:104ce800624078008a4f500025003200e24f5000a1
:104cf800230032000b0c98008140e80051549800c2
:104d0800980c9000cbfe37000af0b7004b80880063
:104d180040002000000c9800980c9000c5fe370059
:104d28000af0b700200020004080880040002000e2
:104d3800000c9800980c9000befe37004054980074
:104d48001000200070049800980c9000e4fe3700d2
:104d580011c2b30008007800e5f90700980c90002c
:104d6800dffe37000af0b7005000200040808800be
:104d78004000200070049800980c9000d8fe37007e
:104d88000af0b7004b80880040002000000c980013
:104d98008140e80051549800980c9000a5fe370017
:104da8000af0b70050002000408088004000200032
:104db800000c98008140e80051549800980c90002d
:104dc8009cfe3700a0002100014878003000200038
:104dd800408088004000200070049800980c9000e3
:104de800bffe370079049800380090000048eb00b7
:104df80051c1b30008007800bdf90700980c900075
:104e0800b7fe3700d8409000814f5000f5ff3e00b4
:104e180052c5b30082404000415498004044980075
:104e2800595498002000200070049800980c9000b5
:104e3800abfe370040089000a0c490008984fb00b6
:104e4800e384440058009000c00090000100010075
:104e58000080fb00808f540007003d009080800098
:104e680040099000c008900072199000e118900065
:104e7800810f51000d00310060808000718080003a
:104e880061004000e08048006080880071808800f0
:104e98004f0778004f06be004f05be004f04be0006
:104ea8004f00b100000006009efe37004008900049
:104eb8008000eb00711898005800900010017800ed
:104ec80021c0b300020001005800900091808000ca
:104ed800c1089000a1c090001001780002000100f4
:104ee80058009000c84890001001780002000100a6
:104ef8005800900091808000c108900081209000a7
:104f08001001780002000100580090009180800094
:104f1800c108900081209000c808de0010017800c8
:104f28000200010090808000c0099000c008900035
:104f38004009900023c29000c84990008341420074
:104f480083c1e8008120900081c0410092c5900093
:104f580081c545000007eb008004eb008e00e800e7
:104f680081bf9f007207470081864000400890007b
:104f780060807e0060c57c001c007800100178000d
:104f88008a407800020001008ac545008904e800cb
:104f980090808000c0089000e1407f008180fb0085
:104fa800818f5400f1ff39000fbf9700c0089000af
:104fb800b17890008180fb00810f5700e6ff39002f
:104fc800e2cf55000b003200580090001001780025
:104fd8008b407800020001004f0778004f06be00a2
:104fe8004f05be004f04be004f00b1000000060090
:104ff8004cfe3700dbcfb30058009000100178005a
:105008008b40780002000100f3ff37003100980060
:105018005240980043489800c14022000108780097
:1050280021402200110098008000eb001108980030
:105038007100980000000600881f780000047800be
:10504800380190008280e8001180fb004800dd00f4
:10505800124190000281fb0002004000100378001a
:1050680093808000130290000001eb00940f13005e
:1050780012003200130290001400e0000f0032000a
:10508800c20020001302900064027900860f5200cb
:105098000a00320013029000ec0241006402790019
:1050a8000400e000050032000501780013029000ba
:1050b80064027900860f5200f6ff3a00130290004e
:1050c800640279000400e0000e00320093019000b1
:1050d80002814100320190000200010000c0e80096
:1050e80040449800380090008040eb001140980040
:1050f8009800900008007800010001004f04780033
:105108000000060011c4b30008007800f8f8070092
:105118004f04780000000600faff3700881f780067
:1051280000047800b8009000214190004811dd008b
:10513800114090000080fb0000004100100378003f
:1051480093808000130290000001eb00940f13007d
:1051580012003200130290001400e0000f00320029
:10516800c20020001302900064027900860f5200ea
:105178000a00320013029000ec0241006402790038
:105188000400e000050032000501780013029000d9
:1051980064027900860f5200f6ff3a00130290006d
:1051a800640279000400e0001800320093019000c6
:1051b800828141004841900063415100e3804000f2
:1051c800c3019000030001000004e00009003a0058
:1051d80021c0b30041449800b80090009040980066
:1051e8009800900008007800010001004f04780042
:1051f8000000060041c1b30008007800bcf80700b1
:105208004f04780000000600faff370011c4b3000d
:1052180008007800b6f807004f0478000000060080
:10522800f4ff3700881f78003001900002047800ee
:10523800b2429000424390000582fb008483e8005c
:10524800d04190008381fb0051c1b300838f53008c
:105258000c003e00a2419000c819dd009240900069
:105268008180fb0081814100e24f53000800320039
:10527800e44f53003300320041c1b300e14f530003
:10528800250032009af807004f0478000000060055
:105298000400e000170032008000eb008180e80085
:1052a8001344780008f178003001900001014100b2
:1052b800330378004833de0016419800810f52000e
:1052c8000b003600300190008180e800134478001c
:1052d80008f17800300190000101410033037800a3
:1052e8004833de0016419800810f5200f5ff3e005a
:1052f8003004900085c2e800454098008040eb00eb
:105308001144980090009000010001004f047800bb
:1053180000000600deff37000400e000f5ff320061
:105328008000eb00010141003343780026419800da
:105338008100e800810f5200edff36003001900037
:10534800f8ff37000400e000eaff32008000eb00bd
:105358000101410013437800264198003001900074
:10536800010141001303be00483cdd004833de0064
:1053780006037400c83bde0036419800e480400014
:10538800300190002343900006f17800300190002e
:10539800010141003344900018419800e481410024
:1053a800810f5200d2ff360030019000e8ff37002d
:1053b800889fbe008a1f780000057800ba04900014
:1053c800890278009943900029429000ca419000d0
:1053d800e4c15100394190008381fb000283fb0046
:1053e800050009008681d800010378000600e00066
:1053f80009003a004822dd008783fb0007024200cb
:10540800e24f51004b003200e44f510008003200d7
:10541800e14f51002e00320041c1b3000a0078006c
:1054280033f807004f0578004f04be00000006005f
:10543800c219de001b003200e48044000001eb00ca
